:020000040800F2
:1000000058070024390300085F3D0008193C000828
:100010005D3D0008BD070008954100080000000094
:10002000000000000000000000000000094000087F
:10003000190B000800000000613D00082140000885
:100040005303000853030008530300085303000838
:100050005303000853030008530300085303000828
:100060005303000853030008530300085303000818
:10007000C107000853030008530300085303000896
:1000800053030008530300085303000853030008F8
:1000900053030008530300085303000853030008E8
:1000A00053030008530300085303000853030008D8
:1000B00053030008530300085303000853030008C8
:1000C00053030008530300085303000853030008B8
:1000D00053030008530300085303000853030008A8
:1000E0001B0B000853030008000000005303000826
:1000F0005303000853030008530300085303000888
:100100005303000853030008530300085303000877
:100110005303000853030008530300085303000867
:100120005303000853030008530300085303000857
:100130005303000853030008530300085303000847
:1001400000000000000000000000000000000000AF
:100150005303000853030008530300085303000827
:100160005303000853030008530300085303000817
:100170005303000853030008530300080000000065
:1001800053030008530300085303000853030008F7
:1001900053030008530300085303000853030008E7
:1001A00053030008530300085303000853030008D7
:1001B00053030008530300085303000853030008C7
:1001C00053030008530300085303000853030008B7
:1001D00053030008530300085303000853030008A7
:1001E0005303000853030008530300085303000897
:1001F0005303000853030008530300085303000887
:100200005303000853030008530300085303000876
:100210005303000853030008530300085303000866
:1002200053030008530300085303000800000000B4
:1002300053030008530300080000000053030008A4
:100240005303000853030008530300085303000836
:100250005303000853030008530300085303000826
:100260005303000853030008530300085303000816
:100270005303000853030008530300080000000064
:100280005303000853030008530300080000000054
:10029000000000005303000800F002F800F03CF8F2
:1002A0000AA090E8000C82448344AAF10107DA45D1
:1002B00001D100F031F8AFF2090EBAE80F0013F0E7
:1002C000010F18BFFB1A43F0010318476C400000F0
:1002D0008C400000103A24BF78C878C1FAD8520781
:1002E00024BF30C830C144BF04680C6070470000B0
:1002F0000023002400250026103A28BF78C1FBD82F
:10030000520728BF30C148BF0B6070471FB504F0CB
:1003100001F81FBD10B510BD00F0F1F81146FFF750
:10032000F5FF03F049FF00F00FF903B4FFF7F2FF08
:1003300003BC00F017F9000009488047094800474E
:10034000FEE7FEE7FEE7FEE7FEE7FEE7FEE7FEE785
:10035000FEE7FEE704480549054A064B70470000E2
:10036000FD400008990200085801002458070024A5
:100370005803002458030024032A40F2308010F070
:10038000030C00F0158011F8013BBCF1020F624430
:1003900098BF11F801CB00F8013B38BF11F8013BC1
:1003A000A2F1040298BF00F801CB38BF00F8013B6E
:1003B00011F0030300F07180083AC0F0088051F892
:1003C000043B083A51F804CBA0E80810F5E7121DE9
:1003D0005CBF51F8043B40F8043BAFF30080D20708
:1003E00024BF11F8013B11F801CB48BF11F8012BD4
:1003F00024BF00F8013B00F801CB48BF00F8012BF7
:1004000070474FF000020429C0F0128010F0030C76
:1004100000F01B80CCF1040CBCF1020F18BF00F8F7
:10042000012BA8BF20F8022BA1EB0C0100F00DB8A6
:100430005FEAC17C24BF00F8012B00F8012B48BF04
:1004400000F8012B70474FF0000200B513469446A8
:100450009646203922BFA0E80C50A0E80C50B1F11C
:100460002001BFF4F7AF090728BFA0E80C5048BF30
:100470000CC05DF804EB890028BF40F8042B08BFCE
:10048000704748BF20F8022B11F0804F18BF00F8CA
:10049000012B704770477047704710B5203AC0F085
:1004A0000B80B1E81850203AA0E81850B1E8185075
:1004B000A0E81850BFF4F5AF5FEA027C24BFB1E8B2
:1004C0001850A0E8185044BF18C918C0BDE8104023
:1004D0005FEA827C24BF51F8043B40F8043B08BF2C
:1004E0007047D20728BF31F8023B48BF11F8012BF3
:1004F00028BF20F8023B48BF00F8012B7047754623
:1005000000F02CF8AE4605006946534620F007007F
:10051000854618B020B5FFF71DFFBDE820404FF01D
:1005200000064FF000074FF000084FF0000B21F0DD
:100530000701AC46ACE8C009ACE8C009ACE8C009AA
:10054000ACE8C0098D46704710B50446AFF3008093
:100550002046BDE81040FFF7E8BE000000487047A5
:10056000F800002401491820ABBEFEE72600020077
:100570007047000070B53D4905460068884202D0CA
:100580003B4A904202D1D1F8080302E03948D0F842
:10059000080310F4403F11D003F030F804466868B7
:1005A000B0F5803F06D0B0F5003F03D0B0F5403F36
:1005B00026D101E0000C17E0A40821E04FF4002050
:1005C00002F0C6F9044668688103890B18D18114CA
:1005D0000C2915D2DFE801F0140606060606060B04
:1005E0000D0F1113800C4000B4FBF0F408E0240957
:1005F00006E0640904E0A40902E0E40900E0240A3A
:1006000001F0A4FE41F20301884208D81A4884424E
:100610002868816817D821F48071816070BD1749FE
:100620006008884204D82868816821F44071F4E7A2
:100630001249124AC943521E0144914206D8286801
:10064000816821F4407141F48071E6E70C49084467
:100650000C4988422868816804D821F4407141F42B
:100660000071DAE741F44071D7E700000020024052
:100670000021024000600258002D3101105E5F0031
:10068000DF4341FF1FBCBE0010B5846B616D11F0EC
:10069000500F06D0616DC90625D5204600F0F9FC43
:1006A00010BD606D40F40070606520680168090746
:1006B00007D503F0C2FA90B12068C068800403D562
:1006C0000DE0C06880070AD1606D20F4807060651D
:1006D000606DC00403D4606D40F001006065204689
:1006E00000F0D0FC10BDE16CC96CBDE810400847BB
:1006F00010B5806B416D41F040014165816D41F065
:100700000401816500F0C5FC10BD10B5806B00F0E0
:10071000BFFC10BD2DE9F0410446006803F081FAEA
:1007200008BB20688168204A11422AD18168D643DB
:100730003140491C816001F00FFE1C4B05462068CA
:100740001B4F984201D0B84201D11A4900E01A4922
:100750008968B84201F01F0201D1194600E0014644
:10076000814219D0C2B11CE003F05BFA20B92068C5
:1007700081683140491C816001F0EEFD401B022878
:100780000AD9606D40F010006065A06D40F0010076
:10079000A0650120BDE8F08120680168C943C90750
:1007A000E2D10020F6E700003F0000800020024078
:1007B000002102400023024000630258FEE70000CF
:1007C000014800F0D1BE00008000002410B52A4A84
:1007D000016891423AD0284A1832914236D0264ACE
:1007E0003032914232D0244A483291422ED0224AAD
:1007F000603291422AD0204A7832914226D01E4A55
:100800009032914222D01C4AA83291421ED01B4AFB
:1008100091421BD0194A1832914217D0174A3032F0
:10082000914213D0154A483291420FD0134A603298
:1008300091420BD0114A7832914207D00F4A903240
:10084000914203D00D4AA832914211D1CAB20C4C48
:100850001823103AB2FBF3F26FF3090102F0070319
:10086000032AE35CC36500D9091D8165084610BDF4
:1008700021F0FF01F9E700001000024010040240DF
:100880002E43000810B501680123224CCAB2A142D0
:100890001BD0204C1434A14217D01E4C2834A14246
:1008A00013D01C4C3C34A1420FD01A4C5034A142FE
:1008B0000BD0184C6434A14207D0164C7834A142B6
:1008C00003D0144C8C34A1420FD11421083AB2FB4E
:1008D000F1F1114A02EB810202660F4A01F01F0199
:1008E00080328B40C0E9192310BD1824103AB2FBA6
:1008F000F4F20A4C2144A82900D80832084901EB37
:100900008201016606498031416602F01F018B4079
:10091000836610BD0854025800580258F0FBFDBF12
:100920000008024010B50279531E072B30D8194C2D
:100930000168A1421BD0174C1434A14217D0154CAA
:100940002834A14213D0134C3C34A1420FD0114C97
:100950005034A1420BD00F4C6434A14207D00D4C4F
:100960007834A14203D00B4C8C34A14206D10A4901
:1009700001EB8201C1660849443105E0074901EBFA
:100980008201C166054944310167012199404167EF
:1009900010BD000008540258FC580258FC080240E0
:1009A000014610B500208B694FF0C0748A6A53B1BC
:1009B000B3F5005F15D072B1012A0CD0022A0AD01B
:1009C000032A09D104E01AB1012A06D0022A03D170
:1009D000C96AC90100D5012010BDC96AA142FAD077
:1009E00010BD002AF7D0012AF2D0022AF3D0032A40
:1009F000F3D010BD70B5D0E91964856D7460C46E14
:100A000014B1D0E91C466660404E0468B4423AD046
:100A10003E4E1836B44236D03C4E3036B44232D018
:100A20003A4E4836B4422ED0384E6036B4422AD0C0
:100A3000364E7836B44226D0344E9036B44222D068
:100A4000324EA836B4421ED0314EB4421BD0304E86
:100A50001836B44217D02E4E3036B44213D02C4E36
:100A60004836B4420FD02A4E6036B4420BD0284EDE
:100A70007836B44207D0264E9036B44203D0244E86
:100A8000A836B44214D190F85C4004F01F063F240D
:100A9000B440AC600468256825F4802525602DE00D
:100AA0009A600068C16070BD99600068C26070BDE6
:100AB000184EB4421BD0174E1436B44217D0154E00
:100AC0002836B44213D0134E3C36B4420FD0114EE8
:100AD0005036B4420BD00F4E6436B44207D00D4EA0
:100AE0007836B44203D00B4E8C36B442DFD190F846
:100AF0005C4004F01F060124B4406C60046863602D
:100B00008368402B0368CFD1CAE700001000024081
:100B1000100402400854025870474FF4006001F07E
:100B200015BBFEE7194808B5016841F08001016076
:100B3000016801F080010091016841F00401016049
:100B4000016801F004010091016841F001010160B8
:100B5000016801F001010091016841F0100101609C
:100B6000016801F010010091016841F0020101608B
:100B7000016801F002010091016841F00801016083
:100B8000006800F00800009008BD0000E044025832
:100B90002DE9F047044690F8500000270D46012843
:100BA0009AB014D0012084F85000DFF8E8804FF0AC
:100BB0000009216841450ED1374E0096304603F0BA
:100BC00038F88246206803F034F860B10EE0022065
:100BD0001AB0BDE8F087616D41F020016165012028
:100BE00084F85090F4E7BAF1000F08D0606D40F03F
:100BF00020006065012784F850903846E8E72068B7
:100C00004346984201D0B04201D1244800E0244834
:100C100040F61F722968DFF88CC00029816821F432
:100C200040411ED0D5F8048041EA08018160216866
:100C3000994201D0B14207D19968B368C1F300016C
:100C4000C3F30003194303E0DCF80810C1F300010B
:100C50000029D0D1AB6829681943836893431943AD
:100C600015E081602168994201D0B14207D19968AD
:100C7000B368C1F30001C3F30003194303E0DCF8D8
:100C80000810C1F300010029B5D18168914381604A
:100C9000B1E7000000200240002102400023024092
:100CA00000630258006002582DE9F84F00270446FF
:100CB000DFF898930D460097BB4690F85000E44E3D
:100CC000DFF890A3012808D04FF0010884F8508085
:100CD000206802F0AAFF18B167E10220BDE8F88F92
:100CE0002168CA692868030329D090FAA0F0B0FAF5
:100CF00080F000F01F0308FA03F00243CA61D5E94F
:100D0000002021680C2303EA901319440B6B00F0B8
:100D10001F004FF01F0CC2F384620CFA00FC8240EB
:100D200023EA0C0313430B63206802F07EFF00905C
:100D3000206802F072FF0099014303D07EE0C0F307
:100D40008460D6E7AA682968206802F07EFFC2485E
:100D50000168B8EB117F06D168692168C968C1F3E1
:100D60008201490008E02168C868C0066869F5D5B5
:100D7000C96801F0100149088840296904292DD06B
:100D800023682A6803EB81010B6E02F0F8420243EC
:100D900003F0004313430B66697E2268286901292A
:100DA00016D0002102EB8000026E22F000420A43BE
:100DB0000266297E20682A6901290CD00021036976
:100DC00002F01F0223F4F04391400B43036135E02E
:100DD0004FF00041E6E74FF40061F0E72068016E54
:100DE0002A7801F0F841B1EB826F03D1016E21F056
:100DF000004101662068416E2A7801F0F841B1EBAC
:100E0000826F03D1416E21F0004141662068816EFE
:100E10002A7801F0F841B1EB826F03D1816E21F0A5
:100E2000004181662068C16E2A7801F0F841B1EB7B
:100E3000826F03D1C16E21F00041C166206802F0CB
:100E4000F0FE002873D120682A7B296850F8C03F43
:100E5000C1F3130C23EA0C0302F0180C7F4A22FAA8
:100E60000CF20A4013430360E968494575D12868CC
:100E700001031AD090FAA0F1B1FA81F1491C01F0F6
:100E80001F0109294FEA003130D8002910D090FA0B
:100E9000A0F1B1FA81F101F1010101F01F0108FA9D
:100EA00001F208D1C0F3846109E0C0F38461E5E791
:100EB000C0F38461EFE790FAA0F1B1FA81F101F19A
:100EC000010101F01F0142EA816102D1C0F3846097
:100ED00003E090FAA0F0B0FA80F000F1010000F019
:100EE0001F0000EB400041EA005132E000290DD024
:100EF00090FAA0F1B1FA81F101F1010101F01F01B5
:100F000008FA01F205D1C0F3846106E0C0F3846100
:100F1000F2E790FAA0F1B1FA81F101F1010101F0DB
:100F20001F0142EA816103D1C0F3846004E041E023
:100F300090FAA0F0B0FA80F0494A00F1010000F008
:100F40001F0000EB400002EB005041EA000141F0BD
:100F50000071AA68206802F078FE2A68002A29DA5F
:100F6000404B2068404DDFF80491984201D0B042D8
:100F700001D1294600E049468968984201F0E071B4
:100F800001D0B0420AD1D3F808C0D6F80880CCF31B
:100F9000000CC8F300084CEA080C03E0DAF808C0BB
:100FA000CCF3000CBCF1000F08D0606D40F02000C5
:100FB0006065012784F850B038468FE6DFF8B0C08E
:100FC00062451CD15FEA012C19D45045F2D19842F8
:100FD00002D0B04200D04D4641F40000A96821F093
:100FE000E0710143A960234823490068B0FBF1F098
:100FF000400000E0401E00900028FBD1DAE7DFF857
:101000007CC062450CD15FEAC11C09D45045D1D1E6
:10101000984202D0B04200D04D4641F080700EE0C0
:10102000DFF85CC06245C5D14A02C3D45045C1D186
:10103000984202D0B04200D04D4641F48000A968E9
:1010400021F0E0710143A960B4E700000000FF4710
:1010500000210240006002580010005CFFFF0F00FA
:10106000000020FE002002400023024000630258DE
:10107000000084CB00000024400D0300000052C794
:101080000000B8CF01490120087070470D0000240E
:1010900070477047F8B54FF0000504002E460095E4
:1010A00002D0606D10B107E00120F8BD204600F0CD
:1010B00001F9A66584F8506020688168C1F3407129
:1010C00019B181686E4A1140816020688168C1F35E
:1010D000007179B981686B4A114041F0805181609B
:1010E00069486A490068B0FBF1F000E0401E0090DA
:1010F0000028FBD120688168C1F3007141B9616D9E
:1011000041F010016165A16D41F00101A16501256A
:1011100002F08BFD616DC90600D430B1606D40F006
:101120001000606501252846F8BD606D20F48070D0
:1011300040F002006065206802F073FD00BB544A75
:101140002068544B904201D0984207D191689E6824
:10115000C1F30001C6F30006314303E04E4989683C
:10116000C1F3000161B9904201D0984201D14B48CE
:1011700000E04B486168826822F47C120A43826076
:1011800001F0E4F841F20301884202D9A068102876
:101190000CD0A168206B227F0843617D490341EA9E
:1011A00002410843D1B201290CD010E0617D227FB9
:1011B000206B490340F0100041EA0241084340F02F
:1011C0000C00EFE7218C374A02EB41410843616A8A
:1011D00029B1A26A01F47871014342EA0100216851
:1011E000CA68314B1A400243CA60206802F01DFDF4
:1011F0000646206802F011FD06431DD1217DE06AFC
:1012000040EA81312068C26844F203039A430A43EA
:10121000C26094F83800012816D02068016921F0D6
:101220000101016120680169626B21F07041114385
:1012300001612046FFF79EF9E06801282068016BF4
:1012400021F00F0110D012E0D4E91010A28F174B3B
:101250000143A06C03EB0242104301432068026982
:10126000134B1A401143DCE7A269521E114301637C
:10127000606D20F0020040F00100606553E700005F
:10128000C0FFFF5FC0FFFF7F00000024400D030090
:10129000002002400021024000600258002302406A
:1012A000006302580000FEFF03C0F0FF0100FFFFD3
:1012B0001EF800FC70B586B0064614216846FFF79C
:1012C000C2F824493068884241D123490868401C4B
:1012D0000860012808D12148016841F0200101601F
:1012E000006800F0200005901C480830016841F0BB
:1012F0000101016000680025694600F001000590C9
:10130000012000900320CDE90105154800F02AFFD7
:10131000154C144820600920C4E901054FF4806091
:10132000C4E90350400060618000C4E90605000183
:10133000C4E90805204600F095FCF4640122002170
:10134000A6630C2001F0BAF80C2001F0AAF806B050
:1013500070BD00000020024008000024D84402585C
:101360000000025828000240800000242DE9F041CE
:101370003A4E044600683A4FB04201D0B84201D11B
:10138000384900E03849896801F01F0502F04DFC3A
:1013900018B102210846BDE8F08194F850000128F8
:1013A0000CD0012084F850002046FFF7B3F901006B
:1013B0004FF0000304D084F85030EBE70220EAE756
:1013C000606D40F60162904340F480706065206873
:1013D000B84201D1324600E00246824200D01DB937
:1013E000626D22F480126265626DD20404D5A26D32
:1013F00022F00602A26500E0A3651C22026084F8C8
:1014000050302068B84201D1324600E002468242A4
:1014100015D0A5B1052D12D0092D10D0626D42F462
:1014200080126265B84200D00646F0688001B1D5EE
:10143000606D20F4005040F480506065AAE7C268F7
:10144000920105D5626D22F4005242F48052626529
:101450008268064B1A40121D82609BE70020024002
:10146000002102400023024000630258C0FFFF7FBA
:101470002DE9F047344F044600689146DFF8CC80F0
:101480008A46B84201D0404501D1314900E0314996
:10149000896801F01F0502F0C8FB002851D194F8BB
:1014A000500001284DD0012084F85000002625B1BD
:1014B000052D02D0092D00D003E02046FFF72AF9C0
:1014C00018B184F85060BDE8F087606D40F60161A6
:1014D000884340F4807060652068404500D007462E
:1014E000874200D01DB9606D20F480106065606D8A
:1014F000C00404D5A06D20F00600A06500E0A6653C
:10150000E16C1548C863E16C14480864E16C144848
:10151000C8641C202168086084F850602068416815
:1015200041F01001416021684B46E06C5246403169
:1015300000F0F8FC21688A680A4B1A40121D8A6084
:10154000C1E70220BFE70000002002400021024066
:101550000023024000630258890600080B070008B8
:10156000F1060008C0FFFF7F2DE9FC5F0446002064
:1015700000904FF41651F9480068B0FBF1F001906B
:10158000A56D2E682A68F64FDFF8D483DFF8D0A364
:10159000DFF8CCB308F1180820680AF1300ADFF848
:1015A000C4930BF1480BB84238D04146884235D03D
:1015B000504533D0584531D0E949603188422DD06B
:1015C000E7497831884229D0E5499031884225D0D1
:1015D000E349A831884221D048451FD0E14918315C
:1015E00088421BD0DF493031884217D0DD4948316D
:1015F000884213D0DFF86CE30EF1600E70450DD019
:10160000D84B7833984209D0DFF858C30CF1900CCE
:10161000604503D0D349A83188427DD194F85C104D
:10162000082301F01F0103FA01F232424CD0B84204
:1016300033D0404531D050452FD058452DD0C849E2
:101640006031884229D0C6497831884225D0C449C2
:101650009031884221D0C249A83188421DD04845E6
:101660001BD0C0491831884217D0BE49303188425A
:1016700013D0BC49483188420FD0BA496031884202
:101680000BD0B8497831884207D0B64990318842AA
:1016900003D0B449A831884203D1016801F00401A4
:1016A00002E0016801F0080171B1016821F0040154
:1016B000016094F85C0000F01F0003FA00F2AA60D9
:1016C000606D40F00100606594F85C00012100F05D
:1016D0001F008140314241D02068B84235D040459A
:1016E00033D0504531D058452FD09D4A603290427A
:1016F0002BD09B4A7832904227D0994A9032904220
:1017000023D0974AA83290421FD048451DD0954A11
:101710001832904219D000E0B4E1924A303290423F
:1017200013D0904A483290420FD08E4A6032904295
:101730000BD08C4A7832904207D08A4A903290423D
:1017400003D0884AA83290427ED1406910F0800FC1
:1017500004D0A960606D40F00200606594F85C0000
:10176000042100F01F00814031423FD02068B84280
:1017700033D0404531D050452FD058452DD0784AF0
:101780006032904229D0764A7832904225D0744A0D
:101790009032904221D0724AA83290421DD04845E2
:1017A0001BD0704A1832904217D06E4A30329042A5
:1017B00013D06C4A483290420FD06A4A603290424D
:1017C0000BD0684A7832904207D0664A90329042F5
:1017D00003D0644AA83290424FD1006810F0020F43
:1017E00004D0A960606D40F00400606594F85C006E
:1017F000102100F01F008140314259D02068B842CA
:1018000035D0404533D0504531D058452FD0544A7B
:10181000603290422BD0524A7832904227D0504AC0
:101820009032904223D04E4AA83290421FD0484571
:101830001DD04C4A1832904219D04A4A3032904258
:1018400015D0484A483200E015E090420FD0454A92
:10185000603290420BD0434A7832904207D0414ADE
:101860009032904203D03F4AA832904207D100689C
:1018700000F0080006E0006870E70068B6E700685E
:1018800000F00400A0B1A96020680168490304D5F4
:101890000068000308D5A16C07E00168C90503D4FE
:1018A000016821F008010160216C09B120468847D8
:1018B00094F85C00202100F01F008140314278D074
:1018C0002068B84233D0404531D050452FD05845DC
:1018D0002DD0234A6032904229D0214A783290425A
:1018E00025D01F4A9032904221D01D4AA832904202
:1018F0001DD048451BD01B4A1832904217D0194AB8
:101900003032904213D0174A483290420FD0154AD5
:10191000603290420BD0134A7832904207D0114A7D
:101920009032904203D00F4AA832904203D100680F
:1019300000F0100002E0006800F00200A0B3A9600F
:1019400094F835000428206801680DD049037DD53E
:101950000068000329D4616C28E000000000002426
:10196000100002401004024021F0160101602068BE
:10197000416921F080014161206C08B9A06C20B15F
:101980002068016821F00801016094F85C0000F013
:101990001F013F208840A860002084F83400012007
:1019A00084F83500216D66E003E0E16B09B1204663
:1019B0008847606D00287DD0606DC0075AD0042034
:1019C00084F835002068B8422BD0404529D05045D6
:1019D00027D0584525D0A049884222D09E491831A9
:1019E00088421ED09C49303188421AD09A494831E9
:1019F000884216D0484514D09849884211D097495A
:101A0000183188420DD095493031884209D0934928
:101A10004831884205D091496031884201D08F49D0
:101A20007831016821F00101016021680098019A74
:101A3000401C0090904202D80868C007F6D10020F0
:101A400084F834000868C00711D000E001E00320EA
:101A50000EE00168C905A8D4016821F010010160F9
:101A6000002084F83400012084F835009DE701202F
:101A700084F83500E16C00291CD002B02046BDE896
:101A8000F05F0847764988421DD075491431884275
:101A900019D073492831884215D071493C318842A8
:101AA00011D06F49503188420DD06D496431884260
:101AB00009D000E086E06A497831884203D068495D
:101AC0008C3188427ED101684FF0040894F85C6044
:101AD00006F01F0608FA06F818EA020FCDF8008093
:101AE00047D05FEA417844D500986860080403D580
:101AF000C8033CD4A16CBEE7880638D42068B8423D
:101B00002DD055494839884229D0504527D05845CD
:101B100025D05149884222D04F49183188421ED0E1
:101B20004D49303188421AD04B494831884216D04D
:101B3000484514D04949884211D048491831884253
:101B40000DD046493031884209D0704507D09842BF
:101B500005D0604503D041499031884203D10168E6
:101B600021F0080102E0016821F004010160216C0C
:101B700081E74FF0020808FA06F818EA020FCDF8DC
:101B800000804FD05FEA81784CD5009868600804E7
:101B900003D5C80344D4616C6DE7880640D420683F
:101BA000B8422FD02C49483988422BD0504529D0F3
:101BB000584527D02849884224D0274918318842DF
:101BC00020D000E045E02449303188421AD0224933
:101BD0004831884216D0484514D02049884211D057
:101BE0001E49183188420DD01C493031884209D035
:101BF000704507D0984205D0604503D01749903111
:101C0000884203D1016821F0140102E0016821F04B
:101C10000A010160002084F83400012084F83500B6
:101C2000E16B28E70823B340134212D0090710D50F
:101C3000016821F00E01016094F85C0000F01F01C2
:101C4000012000FA01F169606065002184F8341018
:101C50000EE7BDE8FC9F000070000240280402402F
:101C6000085402582DE9F05F044600F075FB002C83
:101C700006467DD0A64A0127A54B0025A449183267
:101C8000DFF88CC23033DFF88882DFF884920CF101
:101C9000480CDFF87CA208F16008DFF874B209F1A3
:101CA000780920680AF1900ADFF868E20BF1A80BC6
:101CB00088422BD0904229D0984227D0604525D029
:101CC000404523D0484521D050451FD058451DD010
:101CD00070451BD08F491831884217D08D4930315B
:101CE000884213D08B49483188420FD089496031EE
:101CF00088420BD087497831884207D08549903196
:101D0000884203D08349A83188427DD184F8345079
:101D1000022184F835107E49884225D0904223D094
:101D2000984221D060451FD040451DD048451BD06A
:101D3000504519D0584517D0704515D07549183100
:101D4000884211D07349303188420DD071494831F1
:101D5000884209D06F496031884205D06D49783199
:101D6000884201D06B499031016821F0010100E007
:101D7000AFE0016006E000F0EFFA801B052801D912
:101D80002020A2E020680068C007F4D121680A681A
:101D900061480240D4E902031843D4E904363343CE
:101DA0001843A3691843E3691843236A184310438F
:101DB000626A042A03D1D4E90B231A431043086052
:101DC0002068406920F00701606A042840EA0106A3
:101DD0000DD1A06A0643E06A48B12046FEF7E0FD57
:101DE00028B14020606584F8357072E00CE020680E
:101DF00046612046FEF7EAFC94F85C1001F01F02F1
:101E00003F219140816053E0444988421BD04349BF
:101E10001431884217D041492831884213D03F49B4
:101E20003C3188420FD03D49503188420BD03B496C
:101E30006431884207D039497831884203D0374924
:101E40008C31884240D184F83450022184F8351016
:101E5000026833490A40A168402930D0802930D037
:101E60000021E36841EAD301236941EAD3016369B0
:101E700041EAD301A36941EAD301E36941EAD3010D
:101E8000236A41EA13111143016024492068494241
:101E900008441421B0FBF1F08000E0652046FEF715
:101EA00095FC94F85C1001F01F0107FA01F1416004
:101EB0002046FEF7E7FCA06880280DD00DE0102139
:101EC000CFE74FF48041CCE740206065032084F8E1
:101ED00035000120BDE8F09F6560216E2079086023
:101EE000D4E9190141606068401E072808D82046DF
:101EF000FEF718FDE06E0560D4E91C01416002E0C8
:101F0000E56625676567656584F835700020E1E75B
:101F100010000240100402403F8010FE0854025896
:101F20000F00FEFF2DE9F84F04004FF00000009075
:101F300014D094F83400012812D0012084F8340021
:101F400094F835500020012D0CD084F834004FF463
:101F50000060606501200090BDE8F88F0120FBE77C
:101F60000220F9E7022584F835506065704D704E07
:101F70006F4F1835DFF8B8C13036DFF8B481483715
:101F8000DFF8AC91DFF8A8A108F16008DFF8A0B194
:101F900009F1780920680AF1900A0BF1A80B604555
:101FA00033D0A84231D0B0422FD0B8422DD04045D6
:101FB0002BD0484529D0504527D0584525D0DFF8AB
:101FC00074C1604521D0DFF86CC10CF1180C60457C
:101FD0001BD0DFF860C10CF1300C604515D0DFF884
:101FE00054C10CF1480C60450FD0DFF848C10CF12A
:101FF000600C604509D0DFF83CC10CF1780C6045FD
:1020000003D0DFF830C10CF1900CD0F800C02CF0F8
:10201000010CC0F800C02046FEF7ECFC44492068E3
:1020200088422CD0A8422AD0B04228D0B84226D02C
:10203000404524D0484522D0504520D058451ED098
:102040003C4A90421BD03B4A1832904217D0394A42
:102050003032904213D0374A483290420FD0354A3E
:10206000603290420BD0334A7832904207D0314AE6
:102070009032904203D02F4AA83290420CD102688D
:1020800022F01E0242F016020260206C88B1206825
:10209000026842F008020BE0026822F00E0242F0F1
:1020A0000A020260206C20B12068026842F004023B
:1020B0000260206E0268D20303D5026842F4807287
:1020C0000260E06E18B1026842F48072026020681B
:1020D000884226D0A84224D0B04222D0B84220D094
:1020E00040451ED048451CD050451AD0584518D000
:1020F0001049884215D00F491831884211D00D4936
:10210000303188420DD00B494831884209D0094905
:102110006031884205D007497831884201D00549AD
:102120009031016841F001010160009814E700005E
:102130001000024010040240B0F5006F02D10249C5
:1021400001200870704700000C0000244FF0B041DF
:1021500010B5D1F88820024203D0C1F88800FFF7FB
:10216000EBFF10BD2DE9F84F6C4C00224FF0B04A48
:102170004FF0010B4FF0030E4FF00F09C7E00BFAC1
:1021800002F73B4070D04D68022D01D0122D12D1C4
:10219000D50800EB850CDCF820605507ED0E09FA38
:1021A00005F826EA0806D1F8108008FA05F848EA8A
:1021B0000608CCF82080D0F800C0560091F80480C2
:1021C0000EFA06F508F003082CEA050C08FA06F8E2
:1021D00048EA0C08C0F80080D1F804C0BCF1010F37
:1021E00008D0BCF1020F05D0BCF1110F02D0BCF138
:1021F000120F16D1D0F808C0D1F80C802CEA050CCB
:1022000008FA06F848EA0C08C0F80880D0F804C0BC
:102210002CEA070C0F79C7F30017974047EA0C0721
:102220004760C768AF438D68B5403D43C5604D68A2
:10223000ED006BD53A4D2E6846F002062E602D68F3
:1022400022F0030606F1B04605F002050095D6F827
:1022500008C495072F0F09FA07F52CEA050C314D34
:10226000A84202D100252EE050E02F4DA84201D116
:10227000012528E02D4DA84201D1022523E02C4D57
:10228000A84201D103251EE02A4DA84201D1042510
:1022900019E0294DA84201D1052514E0274DA84297
:1022A00001D106250FE0264DA84201D107250AE0FD
:1022B000244DA84201D1082505E0234DA84201D1B3
:1022C000092500E00A25BD4045EA0C05C6F808547A
:1022D00025684E689D43F60300D51D43256065685B
:1022E0004E689D43B60300D51D436560DAF8005083
:1022F00056464F689D43FF0200D51D433560756803
:102300004F689D43BF0200D51D437560521C0B688A
:1023100033FA02F57FF433AFBDE8F88F8000005840
:10232000F444025800000258000402580008025801
:10233000000C0258001002580014025800180258ED
:10234000001C02580020025800240258014800686E
:10235000000C70470010005C014880687047000066
:10236000100000240248816802781144816070479F
:1023700010000024032010B500F0C0F801F054F95B
:102380000E4A1168C1F303230D49CB5C03F01F0310
:10239000D8400C4B1860126802F00F02895C01F003
:1023A0001F01C84008490860002000F00FF808B17C
:1023B000012010BD00F074F8002010BD1844025830
:1023C0001E430008000000240400002470B50D4DD9
:1023D00004462A78A2B14FF47A700B49B0FBF2F0B0
:1023E0000968B1FBF0F001F003FC48B9102C07D2EA
:1023F00000222146501E00F061F800206C6070BD84
:10240000012070BD1000002400000024134A417810
:102410001160111D03780A1DE3B143680B60017B55
:10242000C37A090741EA0361837A41EAC341437BE6
:1024300041EA8341837B41EA4341C37B41EA034153
:10244000437A41EA0321037A007841EA43010143D8
:1024500011607047002008601060704798ED00E040
:10246000BFF35F8F0448016821F4803101600249A5
:10247000002070310860704724ED00E0074940F00B
:102480000100086005487038016841F4803101603E
:10249000BFF34F8FBFF36F8F7047000094ED00E0E4
:1024A0007047002809DB012100F01F02914040091C
:1024B000800000F1E020C0F8001170470E4BF0B42E
:1024C0001B68C3F30223C3F10704042C00D90424BE
:1024D0001D1D072D01D2002300E0DB1E012606FA98
:1024E00004F56D1E0D409D409E40761E164045EA47
:1024F0000601F0BC01F04FBE0CED00E0064A00F012
:10250000070110684FF6FF03184040EA0120034915
:1025100008431060704700000CED00E00000FA0571
:10252000124970B50A68520706D40A6802F0070219
:10253000824201D0012070BD0A6822F007020243E6
:102540000A60FFF709FF094D4FF47A760446083D0B
:1025500006E0FFF701FF001BB04201D9032070BD68
:1025600028688004F5D5002070BD00000C48025892
:1025700010B501F059F806490968064AC1F303216C
:10258000515C01F01F01C8400349086010BD000004
:10259000184402581E43000800000024484910B5A2
:1025A0000A68096802F00302454B1B1DC1F30511BF
:1025B0001B68434C03F001030C342468C4F3CC04BF
:1025C00014FB03F300EE103AB8EE400AE9B33C4BBB
:1025D0009FED3C1A0833F7EE000A62B1DFED3A1ABC
:1025E000012A01D0022A5ED002EE101AF8EE422A29
:1025F00081EEA22A1AE0324A283A1468A4060DD5C0
:102600001268C2F3C104314AE24001EE902AF8EEAA
:10261000612A01EE901AF8EE611A05E001EE901AB7
:10262000DFED2B2AF8EE611A82EEA12A1968C1F3B8
:10263000080101EE901A1968F8EE611A40EE011ACD
:1026400031EEA00A22EE000A00E033E0C1F3462199
:1026500001EE101AB8EE411A31EE201AC0EE011A3E
:10266000BCEEE11A80ED001A1968C1F3064101EED3
:10267000101AB8EE411A31EE201AC0EE011ABCEE63
:10268000E11A80ED011A1968C1F3066101EE101A12
:10269000B8EE411A71EE200A80EE201ABCEEC10A93
:1026A00080ED020A10BD01EE901ADFED0A2AF8EE65
:1026B000611AB9E7002101604160816010BD00002E
:1026C00028440258000000390024744A0090D003C6
:1026D0000024744C20BCBE4B484910B50A680968F8
:1026E00002F00302454B1B1DC1F305311B68434C2F
:1026F00003F0100314342468C4F3CC0414FB03F374
:1027000000EE103AB8EE400AE9B33C4B9FED3C1A9C
:102710001033F7EE000A62B1DFED3A1A012A01D058
:10272000022A5ED002EE101AF8EE422A81EEA22AA8
:102730001AE0324A283A1468A4060DD51268C2F38A
:10274000C104314AE24001EE902AF8EE612A01EE1E
:10275000901AF8EE611A05E001EE901ADFED2B2ACF
:10276000F8EE611A82EEA12A1968C1F3080101EEA0
:10277000901A1968F8EE611A40EE011A31EEA00ABB
:1027800022EE000A00E033E0C1F3462101EE101A08
:10279000B8EE411A31EE201AC0EE011ABCEEE11A71
:1027A00080ED001A1968C1F3064101EE101AB8EE67
:1027B000411A31EE201AC0EE011ABCEEE11A80ED8A
:1027C000011A1968C1F3066101EE101AB8EE411A38
:1027D00071EE200A80EE201ABCEEC10A80ED020ADA
:1027E00010BD01EE901ADFED0A2AF8EE611AB9E782
:1027F000002101604160816010BD00002844025842
:10280000000000390024744A0090D0030024744C66
:1028100020BCBE4B484910B50A68096802F00302A3
:10282000454B1B1DC1F305511B68434C03F48073DA
:102830001C342468C4F3CC0414FB03F300EE103AF8
:10284000B8EE400AE9B33C4B9FED3C1A1833F7EE63
:10285000000A62B1DFED3A1A012A01D0022A5ED0E5
:1028600002EE101AF8EE422A81EEA22A1AE0324A4B
:10287000283A1468A4060DD51268C2F3C104314A7F
:10288000E24001EE902AF8EE612A01EE901AF8EE8D
:10289000611A05E001EE901ADFED2B2AF8EE611ABD
:1028A00082EEA12A1968C1F3080101EE901A196895
:1028B000F8EE611A40EE011A31EEA00A22EE000A8B
:1028C00000E033E0C1F3462101EE101AB8EE411AE0
:1028D00031EE201AC0EE011ABCEEE11A80ED001AAA
:1028E0001968C1F3064101EE101AB8EE411A31EE33
:1028F000201AC0EE011ABCEEE11A80ED011A196827
:10290000C1F3066101EE101AB8EE411A71EE200A09
:1029100080EE201ABCEEC10A80ED020A10BD01EE65
:10292000901ADFED0A2AF8EE611AB9E7002101607A
:102930004160816010BD0000284402580000003949
:102940000024744A0090D0030024744C20BCBE4B79
:102950002DE9F04301466148DFF87C814FF4807C2B
:102960005F4C89B05F4F031146046145A8F1040232
:102970004FF0805529D1D8F8001001F00701052942
:102980001FD2DFE801F0030A0F20140003A8FFF7AD
:1029900005FE049809B0BDE8F0836846FFF79CFE89
:1029A0000098F7E706A8FFF735FF0698F2E71168E9
:1029B00011F04051EED0A94279D11846EAE72046FD
:1029C000E8E70020E6E73846E4E7B1F5007F1AD0F3
:1029D000DFF804C1B1F5806F0CF1080C24D0B1F51B
:1029E000006F36D04FF4805949454ED1D8F80010C9
:1029F00001F4E041B1F5005FD4D03FDC0029C5D03F
:102A00004945DED1C9E7D8F8001001F4E07180290A
:102A1000C8D004DC0029B9D04029D2D1BDE7C029F3
:102A2000D1D06145CDD1C2E7DCF8001001F46001DE
:102A3000B1F5800FB6D005DC0029A7D0B1F5001F95
:102A4000BFD1AAE7B1F5C00FBDD0B1F5000FB8D125
:102A5000ADE7DCF8001001F0E061B1F1007FA1D03A
:102A600005DC002992D0B1F1807FAAD195E7B1F1C0
:102A7000407FA8D0B1F1806FA3D198E7B1F5405F56
:102A8000A1D0B1F5804F9CD191E7B1F5002F4FF463
:102A900080370DD0B94294D1106810F48030AED098
:102AA000B8428ED16846FFF717FE029872E70FE032
:102AB000DCF8001011F44031A4D0B94203D0B1F5D4
:102AC000003F9ED173E706A8FFF7A4FE089861E7D0
:102AD000B14296D173E70000504402580090D003F1
:102AE00040787D010080BB002DE9F84F0446006866
:102AF00000252E46010104F12400FE4FDFF8F88383
:102B000000901DD5606E50B1B0F5801F0CD0B0F5AF
:102B1000001F0ED0B0F5401F1DD001250FE0386812
:102B200040F40030386016E00221201D01F01AF94F
:102B300003E00098022101F09FF905000BD02E461A
:102B40002088C00523D5606D05281ED2DFE800F07F
:102B50000C11161B1B00D8F80010626E21F44011F6
:102B60001143C8F80010EBE7386840F400303860D3
:102B700009E00021201D01F0F5F803E00098002194
:102B800001F07AF905466DB100E001252E46208856
:102B9000800528D5A06D80281ED00CDC90B140287F
:102BA0000ED114E0D8F80010626D21F00701114336
:102BB000C8F80010EBE7C02813D0B0F5807F10D024
:102BC00001250FE0386840F40030386009E000214A
:102BD000201D01F0C7F803E00098002101F04CF936
:102BE000054685B12E462088DFF8109340052CD588
:102BF000D4F8A400B0F5800F20D00DDCA0B1B0F562
:102C0000001F0FD115E0D8F80010A26D21F4E0717B
:102C10001143C8F80010E6E7B0F5C00F13D0B0F5C7
:102C2000000F10D001250FE0386840F40030386004
:102C300009E00021201D01F095F803E00098002133
:102C400001F01AF9054675B12E46208800052DD5EC
:102C5000D4F8A800B0F1007F21D00EDCA8B1B0F10B
:102C6000807F10D116E0D9F80010D4F8A42021F408
:102C700060011143C9F80010E7E7B0F1407F13D0BD
:102C8000B0F1806F10D001250FE0386840F40030BB
:102C9000386009E00021201D01F064F803E000988D
:102CA000002101F0E9F805466DB12E46206880014B
:102CB0001FD5A06CD8B110280FD0202812D03028F2
:102CC00015D0012514E0D9F80010D4F8A82021F07F
:102CD000E0611143C9F80010E8E7386840F40030BB
:102CE000386004E00221201D01F03CF805466DB17A
:102CF0002E462088C0042BD5E06DB0F5005F20D0B3
:102D00000DDCA0B1B0F5805F0FD115E07A48001F4F
:102D10000168A26C21F0300111430160E9E7B0F5D0
:102D2000405F13D0B0F5804F10D001250FE0386818
:102D300040F40030386009E00021201D01F012F855
:102D400003E00098002101F097F8054685B12E4672
:102D50002088800429D5206EB0F5403F23D010DCB8
:102D600008B3B0F5803F14D0B0F5003F0FD115E0A7
:102D7000D8F80010E26D21F4E0411143C8F80010CA
:102D8000E6E7B0F5802F0ED0B0F5A02F0BD00125CF
:102D90000AE00121201D00F0E5FF03E00098012179
:102DA00001F06AF805468DB12E46208840042AD5E8
:102DB000D4F8AC00B0F1405F23D010DC08B3B0F120
:102DC000805F14D0B0F1005F0FD115E0D8F800108B
:102DD000226E21F4E0211143C8F80010E5E7B0F1BC
:102DE000804F0ED0B0F1A04F0BD001250AE0012199
:102DF000201D00F0B7FF03E00098012101F03CF82E
:102E000005466DB12E46208800041FD5E06ED8B16E
:102E1000B0F1805F0ED0B0F1005F10D0012514E05A
:102E2000D9F80010D4F8AC2021F0E0411143C9F8E2
:102E30000010E8E7386840F40030386004E0012111
:102E4000201D00F08FFF05466DB12E462068C001A1
:102E50001ED5606CD0B101280ED0022811D00328F5
:102E600014D0012513E0D8F80010E26E21F0405193
:102E70001143C8F80010E9E7386840F400303860C2
:102E800004E00221201D00F06DFF054675B12E46BD
:102E90002068DFF86CB040025AD51A48016841F446
:102EA00080710160FFF758FA82460EE01248001F59
:102EB0000168626C21F0030111430160E8E7FFF74C
:102EC0004BFAA0EB0A0064283AD80E480068C00507
:102ED000F5D5B5BB094818300068B4F8B01000F457
:102EE000407001F44071884219D0044818300168DC
:102EF0000AE000002C44025850440258584402583A
:102F00001044025800480258026821F4407142F40B
:102F100080320260026822F4803202600160D4F8DC
:102F2000B000B0F5807F22D1FFF716FA824609E0A3
:102F3000FFF712FAA0EB0A0141F28830814201D971
:102F4000032504E0FE4800688007F1D57DB12E46D8
:102F50002078DFF8F0A3C0073CD0A06F182837D046
:102F600025DC78B3082828D0102824D12BE0D4F809
:102F7000B000C0F3012103290ED0DBF8001021F4CA
:102F80007C51CBF80010EE480168B4F8B020C2F3D1
:102F90000B0211430160DBE7DBF80020EA4B22F46F
:102FA0007C5203EA10100243CBF80020EBE7202804
:102FB0000ED028280CD001250BE00121201D00F0A7
:102FC000D1FE04E004E00098012100F055FF054621
:102FD0005DB12E46207880071ED5606F062819D275
:102FE000DFE800F0160C11161616DAF80010A26FC2
:102FF00021F038011143CAF80010EBE70121201D30
:1030000000F0B0FE03E00098012100F035FF054616
:1030100075B100E001252E46207840071FD5D4F871
:103020009000062819D2DFE800F0160C11161616CB
:10303000DAF80010626F21F007011143CAF800109E
:10304000EAE70121201D00F08DFE03E00098012138
:1030500000F012FF05469DB100E001252E462078C4
:1030600080062BD5D4F88C00B0F1405F24D011DC61
:1030700010B3B0F1805F15D0B0F1005F10D116E051
:10308000D9F80010D4F8902021F007011143C9F8B5
:103090000010E4E7B0F1804F0ED0B0F1A04F0BD09C
:1030A00001250AE00021201D00F05CFE03E00098ED
:1030B000022100F0E1FE05468DB12E462078400643
:1030C0002BD5D4F89800B0F5406F24D011DC10B3A4
:1030D000B0F5806F15D0B0F5006F10D116E0DAF8BA
:1030E0000010D4F88C2021F0E0411143CAF8001000
:1030F000E4E7B0F5805F0ED0B0F5A05F0BD00125FE
:103100000AE00021201D00F02DFE03E000980221BE
:1031100000F0B2FE05468DB12E46207800062BD574
:10312000D4F89C00B0F5C04F24D011DC10B3B0F53A
:10313000005F15D0B0F5804F10D116E0D9F800101F
:10314000D4F8982021F4E0511143C9F80010E4E7C5
:10315000B0F5004F0ED0B0F5204F0BD001250AE09E
:103160000021201D00F0FEFD03E00098022100F088
:1031700083FE054665B32E46207800070BD5D4F8AC
:103180008000B0F5805F2DD0DAF8002022F44052A4
:103190000243CAF800202078C0060BD5D4F894006A
:1031A000B0F5807F26D0D9F8002022F44072024387
:1031B000C9F800202068000330D5D4F8A00008B377
:1031C000B0F5803F23D0B0F5003F25D0012524E0A5
:1031D000D9F80010D4F89C2021F460411143C9F8BB
:1031E0000010C9E70098022100F046FE0028D2D066
:1031F0000126D0E70098022100F03EFE0028D9D039
:103200000126D7E70021201D00F0ACFD03E0009867
:10321000022100F031FE054685B12E4620684003AC
:1032200022D5D4F88400B0F5801F11D0B0F5001F6E
:1032300013D0B0F5401F15D0012514E0D9F80010C7
:10324000D4F8A02021F440311143C9F80010E5E77B
:10325000386840F40030386004E00098012100F044
:103260000BFE054655B12E462068C0031CD5E06C08
:1032700070B1B0F5803F10D0012514E0DAF80010ED
:10328000D4F8842021F440111143CAF80010EBE770
:10329000386840F40030386004E00221201D00F05E
:1032A00061FD0546CDB12E462068800005D5009809
:1032B000022100F0E1FD00B10126206880031BD54A
:1032C000E06FB8B1B0F5807F10D0B0F5007F11D0BD
:1032D000B0F5407F0ED001250DE01A48083801688E
:1032E000E26C21F4803111430160DDE7386840F47D
:1032F0000030386055B32E462068C00207D5D8F894
:103300000010226F21F000411143C8F8001020681E
:10331000C00008D5DBF80010D4F8B42021F48041B7
:103320001143CBF800102068800207D5D8F80010B0
:10333000A26E21F080711143C8F80010206806E0E9
:103340007044025854440258CFFFFF001CE0400074
:103350000CD5DBF8001021F40041CBF80010DBF8AD
:103360000010D4F8B8201143CBF8001020680028D2
:1033700006DA0B480168226D21F0405111430160CB
:103380005EB10120BDE8F88FDAF80010E26F21F499
:1033900040711143CAF80010AEE70020F2E70000C8
:1033A0004C4402582DE9F05F04000D467ED0DFF852
:1033B0003092D9F8000000F00F00A8420CD2D9F8E2
:1033C000001021F00F012943C9F80010D9F80000BE
:1033D00000F00F00A84269D12078824E40070AD53C
:1033E0002069316801F07001884204D9316821F008
:1033F0007001014331602078DFF8EC8100070CD5C3
:1034000060694146D8F8002002F07002904204D969
:103410000A6822F0700202430A602078C0060CD5C8
:10342000A0694146D8F8002002F4E062904204D935
:103430000A6822F4E06202430A602078DFF8ACB147
:1034400080060CD5E0695946DBF8002002F07002D6
:10345000904204D90A6822F0700202430A60207880
:1034600080070AD5E068316801F00F01884204D96D
:10347000316821F00F01014331602078C0073DD051
:103480003068A16820F47060084330605549606876
:103490001839022818D0032819D00968012819D032
:1034A0004907002949DADFF83CA100E045E0AAF12C
:1034B000080ADAF8001021F007010143CAF80010E9
:1034C000FEF74AFF074611E009688903E9E7096842
:1034D0008901E6E7C905E4E7FEF73EFFC11B41F2BB
:1034E0008830814202D90320BDE8F09FDAF800005D
:1034F000616800F03800B0EBC10FEDD12078800793
:103500000AD5E068316801F00F01884204D23168C1
:1035100021F00F0101433160D9F80010484601F055
:103520000F01A9420BD9016821F00F012943016065
:10353000006800F00F00A84201D00120D4E72078F5
:1035400040070AD52069316801F07001884204D231
:10355000316821F0700101433160207800070CD5FB
:1035600060694146D8F8002002F07002904204D20F
:103570000A6822F0700202430A602078C0060CD567
:10358000A0694146D8F8002002F4E062904204D2DB
:103590000A6822F4E06202430A60207880060CD5B3
:1035A000E0695946DBF8002002F07002904204D234
:1035B0000A6822F0700202430A6000F035F83168B0
:1035C0000B4AC1F30321515C01F01F01C8400949B6
:1035D000086009480068BDE8F05FFEF7F7BE00002C
:1035E00000200052184402581C440258204402583B
:1035F0001E430008000000241400002410B5FEF74C
:10360000B7FF06490968064A01F00F01515C01F055
:103610001F01C8400349086010BD0000184402584B
:103620001E43000804000024434830B50068444CA1
:1036300010F03801414808D00211082903D01029A0
:103640000BD018290BD0104630BD21688906FBD558
:103650002168C1F3C101C84030BD3A4830BD364988
:1036600018310A68096802F00302334B1C33C1F3B6
:1036700005111B68304D03F0010324352D68C5F397
:10368000CC0515FB03F300EE103AB8EE400AE9B39F
:10369000294BDFED2D0A2033B7EE001A62B1DFEDC2
:1036A0002B1A012A01D0022A3CD002EE101AF8EEA1
:1036B000422A81EEA22A17E0226892060CD52268DF
:1036C000C2F3C102D04001EE900AF8EE612A01EE89
:1036D000901AF8EE611A05E001EE901ADFED1C2A4F
:1036E000F8EE611A82EEA12A1868C0F3080001EE14
:1036F000900A1868F8EE611A40EE201A31EE810A3D
:1037000022EE000AC0F34620401C00E011E000EE6B
:10371000900AF8EE600A80EE201ABCEEC10A10EEA4
:10372000100A30BD01EE901ADFED0A2AF8EE611A98
:10373000D8E7002030BD0000104402580090D003AC
:103740000044025840787D01000000390024744A8A
:103750000024744C20BCBE4B2DE9F05F04007CD0EB
:103760002078DFF8FCA3DFF8FC83FF4DC00748D0CA
:10377000DAF80000D8F8001000F03800102815D052
:10378000182803D101F0030002280FD06068B0F5BB
:10379000803F12D010B1B0F5A02F18D0286820F4C7
:1037A00080302860286820F4802009E028688003A1
:1037B00027D560680028D2D023E0286840F4803004
:1037C0002860606888B1FEF7C7FD064609E02868F2
:1037D00040F480202860F0E7FEF7BEFD801B6428DF
:1037E0007ED828688003F7D50BE0FEF7B5FD0646C6
:1037F00004E0FEF7B1FD801B6428F1D8286880033F
:10380000F7D4207841F20309D84E80075AD5DAF868
:103810000000D8F8001010F038000ED0182801D1A0
:1038200088070AD0E068B0B3296821F01901014384
:103830002960FEF791FD074629E02868400702D578
:10384000E06800288BD02868E16820F01900084360
:103850002860FEF781FD074605E0CBE0FEF77CFD22
:10386000C01B0228BCD828684007F7D5FEF76EFDBC
:103870004845306810D8216920F47C3040EA013096
:1038800030601FE0FEF768FDC01B0228A8D828683A
:103890004007F7D5EAE705E0217C20F0FE4040EA4A
:1038A0000160EDE7286820F001002860FEF754FD74
:1038B000074604E0FEF750FDC01B022890D8286898
:1038C0004007F7D42078C00655D5DAF80000D8F8BC
:1038D000001000F03800DFF888B2ABF1040B00E014
:1038E000ECE0082810D0182803D101F003000128CB
:1038F0000AD0E069002828682ED040F080002860B7
:10390000FEF72AFD07461FE02868C0051FD5E069BD
:1039100080286FD11BE0306894F8201020F0F84028
:1039200040EA8160306026E0DBF8001094F8202047
:1039300021F07C5141EA0261CBF800101BE0FEF758
:103940000BFDC01B02288DD82868C005F7D5FEF7EF
:10395000FDFC4845E8D8DEE720F080002860FEF74F
:10396000FBFC064604E0FEF7F7FC801B02288DD81E
:103970002868C005F7D42078000724D5794F6069FE
:103980004C37002838680FD040F001003860FEF74F
:10399000E3FC064604E0FEF7DFFC801B02288DD81E
:1039A00038688007F7D50EE020F001003860FEF798
:1039B000D3FC064604E0FEF7CFFC801B02287DD82E
:1039C00038688007F7D42078800623D5A0690028BE
:1039D000286810D040F480502860FEF7BDFC0646F1
:1039E00004E0FEF7B9FC801B022867D82868800431
:1039F000F7D50FE0DEE020F480502860FEF7ACFC45
:103A0000064604E0FEF7A8FC801B022856D828686A
:103A10008004F7D42078400746D5554F386840F4E5
:103A200080703860FEF798FC064604E0FEF794FCD0
:103A3000801B642842D83868C005F7D5494FA06874
:103A4000483701280AD008B1052813D0386820F07B
:103A500001003860386820F0040002E0386840F067
:103A600001003860A06841F2883988B1FEF774FC23
:103A7000064609E0386840F004003860EEE7FEF7DB
:103A80006BFC811B494519D838688007F7D50BE0D6
:103A9000FEF762FC064604E0FEF75EFC811B49452A
:103AA0000CD838688007F7D4606AE0B3DAF8001001
:103AB000C1F3C20103297DD0022800E07BE0286821
:103AC00020F08070286003D0FEF746FC044688E0B2
:103AD000FEF742FC064604E0FEF73EFC801B02288F
:103AE0007CD828688001F7D4D8F8001040F2F3326F
:103AF0009143E26A41EA0211A26A1143C8F8001038
:103B000094F834004FF4FE02218E4002491EA0F5C5
:103B1000007080B2C1F308010843218F491E02EAF8
:103B20000141084300E05FE094F83C101202491E96
:103B300002EA016108430B4908310860081F016867
:103B400021F00101016007490C310A684FF6F87352
:103B50009A43A36C42EAC3020A6001680AE00000CB
:103B600010440258284402580044025804440258A1
:103B700000480258226C21F00C01114301600168D9
:103B8000626C21F0020111430160016841F480314F
:103B90000160016841F400310160016841F4802155
:103BA0000160016841F001010160286840F0807007
:103BB000286001E01AE011E0FEF7CEFB044604E0C5
:103BC000FEF7CAFB001B022808D828688001F7D539
:103BD0000AE0FEF7C1FB001B022802D90320BDE862
:103BE000F09F28688001F4D40020F8E70120F6E770
:103BF000401EB0F1807F10B501D3012010BD4FF001
:103C0000E02460610F21601700F0C5FA0020A06178
:103C100007202061002010BDFEE78068C0F3C000CF
:103C200070478068C0F3000070478068C0F3800070
:103C300070478068C0F380007047C06810F4406F20
:103C400001D00020704701207047042303EAD153BC
:103C5000184410B543690724C1F304518C408A40CD
:103C6000A3431343436110BD30B58BB000246846B5
:103C70001C21079408940994FCF7E5FB1D480425D2
:103C80001B494FF4986201604FF42011C0E9011400
:103C9000C0E9034504750121447581610477C0E9D9
:103CA00008128A028262C0E90B14446380F838402B
:103CB000FCF760FC0F48FDF7EDF9A8B90D4807A91E
:103CC0000794FCF765FF78B90B4869460090062019
:103CD000CDE9010440F2FF700594CDE903050548E4
:103CE000FCF7E2FF002800D001200BB030BD00003F
:103CF000002002401C00002400002143054808B5B4
:103D0000016841F001010160006800F001000090CD
:103D100008BD0000D844025800B585B0FCF702FF8A
:103D200014216846FCF78FFB4FF4006000900948AF
:103D300069460190002002900748FEF713FA00221E
:103D400002212820FEF7BAFB05B028205DF804EB1D
:103D5000FEF7A7BB0000111100040258FEE77047F0
:103D6000704700002DE9F047DFF8088104460E4651
:103D70004FF00009D8F80000C043800709D03D4D3E
:103D8000283D286820F080602860FEF7E5FA0746A5
:103D900007E00120BDE8F087FEF7DEFAC01B02282D
:103DA00060D828680001F7D4D8F80010226821F400
:103DB0007C3141EA0231C8F80010207A4FF4FE024B
:103DC000A1884002491EA0F5007080B2C1F308012D
:103DD0000843A189491E02EA01410843217C1202DD
:103DE000491E02EA01610843224910310860214856
:103DF000001D0168626921F0C00111430160016882
:103E0000A26921F0200111430160016821F0100135
:103E10000160184914310A684FF6F8739A43E36950
:103E200042EAC3020A60016841F0100101606EB10C
:103E30000168012E0ED041F400110160286840F0A5
:103E400080602860FEF788FA04460DE0016841F4BE
:103E50000021F2E741F48011EFE7FEF77DFA001B45
:103E6000022801D9032095E728680001F5D54846C6
:103E700090E70000284402582DE9F047DFF8088158
:103E800004460E464FF00009D8F80000C0438007F2
:103E900009D03D4D283D286820F080502860FEF76D
:103EA0005BFA074607E00120BDE8F087FEF754FA09
:103EB000C01B022860D828688000F7D4D8F800100A
:103EC000228821F07C7141EA0251C8F80010207A62
:103ED0004FF4FE02A1884002491EA0F5007080B296
:103EE000C1F308010843A189491E02EA01410843C0
:103EF000217C1202491E02EA01610843224918315D
:103F000008602148001D0168626921F44061114385
:103F100001600168A26921F4007111430160016828
:103F200021F48071016018491C310A684FF6F8735A
:103F30009A43E36942EAC3020A60016841F480716E
:103F400001606EB10168012E0ED041F080710160F8
:103F5000286840F080502860FEF7FEF904460DE026
:103F6000016841F48001F2E741F40001EFE7FEF758
:103F7000F3F9001B022801D9032095E72868800087
:103F8000F5D5484690E7000028440258F0B5BFF345
:103F90004F8FBFF36F8F1A4900200860BFF34F8F18
:103FA000BFF36F8F174C216841F400312160BFF3DC
:103FB0004F8FBFF36F8F134970310860BFF34F8F7E
:103FC000081F006843F6FF750D4E1036C0F34E31E2
:103FD000C0F3C90305EA4112184642EA8077376008
:103FE000401EFAD2491EF5D2BFF34F8F206840F42D
:103FF00080302060BFF34F8FBFF36F8FF0BD0000A4
:1040000050EF00E014ED00E0704700000B4602495D
:1040100002460248FDF786BF40200240800000248F
:10402000FEF7A0B930B5CBB04C212FA8FCF70BFAA6
:10403000202142A8FCF707FABC216846FCF703FAE6
:104040000220FEF76DFA29480024016841F440413E
:104050000160016826490A6842F001020A600968A5
:1040600001F001014A9101688904FCD521480168E9
:1040700021F00301891C016001202F90052100041B
:10408000309002203890CDE93901A0210825CDE9F2
:104090003B10CDE93D50CDE93F542FA84194FFF7A7
:1040A0005BFB08B1FCF73DFD43A93F204290032094
:1040B00081E83100402046900101CDE9470104210B
:1040C000499042A8FFF76EF908B1FCF72AFD0A48AB
:1040D000149400904FF4003028906846FEF704FDD9
:1040E000002801D0FCF71DFD4BB030BD1848025828
:1040F0002C04005828440258000008802048016819
:1041000041F4700101601F49086840F00100086037
:104110001C4A0020103210600A681B4B1A400A60CB
:10412000184A18321060121D1060121D1060154AD6
:1041300028321060121D1060121D1060121D1060D8
:10414000121D1060121D1060121D1060121D1060F3
:104150000A6822F480220A600A49603108600B482C
:1041600000686FF30F00B0F1005F03D2084901202F
:10417000C1F808014FF000600149803908607047BC
:1041800088ED00E0004402587FEDF6EA0010005C84
:1041900000800051FEE70907090E002804DB00F14A
:1041A000E02080F80014704700F00F0000F1E020DC
:1041B00080F8141D704700001FB54FF4A04450480C
:1041C0002146FCF71EF94F482146FCF71AF9FFF784
:1041D000DDFEFEF745F900254B48012701900E2032
:1041E0008DF808008DF80F5003208DF80B006846FD
:1041F0008DF80E708DF800708DF80D708DF80A50E6
:104200008DF801508DF809508DF80C50FEF7FEF82E
:104210000420FEF733F9FEF7ADF8FFF703FFFFF7D1
:104220006DFDFFF779FDFFF71FFDA61034493748F4
:104230003246FDF71DF9364C00B1FEE72078002824
:10424000FCD025704FF420592D484946FCF7D9F889
:104250002B48B0463146FFF7D9FE2C48FDF786F8CB
:10426000274E20780028FCD025706078B8B16570A2
:10427000A07880F00100A070A078494600EB800093
:1042800006EBC020FCF7BDF8A078414600EB8000AB
:1042900006EBC020FFF7BAFE1C48FDF767F8607810
:1042A0000028DED1A078434680F0010000EB8000BA
:1042B00006EBC0220020014632F810C0401C80B23C
:1042C00098426144F8D342F21070814201D93846D5
:1042D00000E0284688B1A07880F0010000EB800063
:1042E00006EBC021A078074A80F0010000EB8000B7
:1042F00002EBC0204A46FCF73FF86770B1E70000C8
:104300000000072400500724000007241C0000249C
:104310000D0000244FF04070E1EE100A70470000DD
:104320000000010203040102030406070809000655
:104330001016000610160000584300080000002464
:104340001C000000D4020008744300081C00002474
:10435000E49F0700F00200080090D0030090D00313
:10436000000000000000010101000000100000003A
:044370000000000049
:040000050800029954
:00000001FF
