:020000040800F2
:100000007806002431030008E70C0008E50C00081E
:10001000CD0C1008CD030008CD0E10080000000024
:10002000000000000000000000000000850E000835
:100030007700100800000000CF0C1008F10D100828
:100040004B0300084B0300084B0300084B03000858
:100050004B0300084B0300084B0300084B03000848
:100060004B0300084B0300084B0300084B03000838
:100070004B0300084B0300084B0300084B03000828
:100080004B0300084B0300084B0300084B03000818
:100090004B0300084B0300084B0300084B03000808
:1000A0004B0300084B0300084B0300084B030008F8
:1000B0004B0300084B0300084B0300084B030008E8
:1000C0004B0300084B0300084B0300084B030008D8
:1000D0004B0300084B0300084B0300084B030008C8
:1000E000790010084B030008000000004B030008D3
:1000F0004B0300084B0300084B0300084B030008A8
:100100004B0300084B0300084B0300084B03000897
:100110004B0300084B0300084B0300084B03000887
:100120004B0300084B0300084B0300084B03000877
:100130004B0300084B0300084B0300084B03000867
:1001400000000000000000000000000000000000AF
:100150004B0300084B0300084B0300084B03000847
:100160004B0300084B0300084B0300084B03000837
:100170004B0300084B0300084B030008000000007D
:100180004B0300084B0300084B0300084B03000817
:100190004B0300084B0300084B0300084B03000807
:1001A0004B0300084B0300084B0300084B030008F7
:1001B0004B0300084B0300084B0300084B030008E7
:1001C0004B0300084B0300084B0300084B030008D7
:1001D0004B0300084B0300084B0300084B030008C7
:1001E0004B0300084B0300084B0300084B030008B7
:1001F0004B0300084B0300084B0300084B030008A7
:100200004B0300084B0300084B0300084B03000896
:100210004B0300084B0300084B0300084B03000886
:100220004B0300084B0300084B03000800000000CC
:100230004B0300084B030008000000004B030008BC
:100240004B0300084B0300084B0300084B03000856
:100250004B0300084B0300084B0300084B03000846
:100260004B0300084B0300084B0300084B03000836
:100270004B0300084B0300084B030008000000007C
:100280004B0300084B0300084B030008000000006C
:10029000000000004B03000800F002F800F038F8FE
:1002A0000AA090E8000C82448344AAF10107DA45D1
:1002B00001D100F02DF8AFF2090EBAE80F0013F0EB
:1002C000010F18BFFB1A43F001031847A80C0000E8
:1002D000C80C0000103A24BF78C878C1FAD8520779
:1002E00024BF30C830C144BF04680C6070470000B0
:1002F0000023002400250026103A28BF78C1FBD82F
:10030000520728BF30C148BF0B60704710B510BD01
:10031000FFF07DFE1146FFF073FE00F1D8FDFFF007
:100320009BFE03B4FFF7F2FF03BC00F049F80000A6
:100330000948804709480047FEE7FEE7FEE7FEE779
:10034000FEE7FEE7FEE7FEE7FEE7FEE704480549B5
:10035000054A064B70470000890E00089902000804
:100360007800002478060024780200247802002413
:100370004FF0000200B5134694469646203922BF3E
:10038000A0E80C50A0E80C50B1F12001BFF4F7AF89
:10039000090728BFA0E80C5048BF0CC05DF804EB6B
:1003A000890028BF40F8042B08BF704748BF20F8D9
:1003B000022B11F0804F18BF00F8012B704700008E
:1003C00001491820ABBEFEE726000200FEE7FEE76B
:1003D000B0F5006F02D1024901200870704700009B
:1003E0000C00002402488168027811448160704743
:1003F00000000024032010B5FFF0B6FF00F068F9FC
:100400000E490F4A0F4B0C68C4F30324145D04F02B
:100410001F04E0401860096801F00F01515C01F011
:100420001F01C84008490860002000F00FF808B11B
:10043000012010BDFFF076FF002010BD18440258C7
:10044000620F0008100000241400002470B50D4D48
:1004500004462878A0B14FF47A71B1FBF0F00A4954
:100460000968B1FBF0F000F02AFC48B9102C07D263
:1004700000222146501EFFF057FF00206C6070BD27
:10048000012070BD00000024100000242DE9F05F61
:1004900004000F467ED0DFF82482D8F8000000F078
:1004A0000F00B8420CD2D8F8001021F00F013943E8
:1004B000C8F80010D8F8000000F00F00B84269D169
:1004C00020787F4D40070AD52069296801F0700126
:1004D000884204D9296821F07001014329602078FD
:1004E000774E361D00070AD56069316801F070014A
:1004F000884204D9316821F07001014331602078CD
:10050000C0060AD5A069316801F4E061884204D9C7
:10051000316821F4E061014331602078DFF8A0B157
:1005200080060BF1080B0CD5E1695846DBF800207A
:1005300002F07002914204D9026822F070020A436C
:100540000260207880070AD5E068296801F00F0171
:10055000884204D9296821F00F01014329602078DD
:10056000C0073ED05649A2682868183920F4706048
:10057000104328606068022818D0032819D0096841
:10058000012819D0490700294ADADFF834A1AAF175
:10059000080A00E044E0DAF8002022F007020243F3
:1005A000CAF80020FFF0B8FE814612E0096889030E
:1005B000E9E709688901E6E7C905E4E7FFF0ACFE71
:1005C000A0EB090141F28830814202D90320BDE845
:1005D000F09F6168DAF8000000F03800B0EBC10F5E
:1005E000ECD1207880070AD5E068296801F00F0176
:1005F000884204D2296821F00F0101432960D8F80C
:100600000010404601F00F01B9420BD9016821F0FA
:100610000F0139430160006800F00F00B84201D0BB
:100620000120D4E7207840070AD52069296801F025
:100630007001884204D2296821F0700101432960C9
:10064000207800070AD56069316801F0700188429E
:1006500004D2316821F07001014331602078C00676
:100660000AD5A069316801F4E061884204D231689A
:1006700021F4E06101433160207880060CD5E16906
:100680005846DBF8002002F07002914204D2026862
:1006900022F070020A43026000F01AF82968094A41
:1006A000C1F30321515C01F01F01C84006490860F5
:1006B00006480068BDE8F05FFFF7C8BE00200052A2
:1006C00018440258620F000810000024040000249F
:1006D000454970B545480968434B103B11F0380255
:1006E00008D00111082A03D0102A0BD0182A0BD0E9
:1006F000084670BD19688906FBD51968C1F3C101A8
:10070000C84070BD3A4870BD3749374D18310C1D8F
:1007100024350A68096826682D6802F0030406F08B
:100720000102C1F30511C5F3CC0515FB02F200EE81
:10073000102AB8EE400AE9B32F4ADFED2E0AB7EED1
:10074000001A6CB1DFED2D1A012C01D0022C43D020
:1007500002EE101A1068F8EE422A81EEA22A1EE07C
:100760001C68A40611D51B6801EE901A1168C3F32A
:10077000C103F8EE612AD84001EE900AC1F30800E7
:10078000F8EE611A81EEA22A0BE001EE901ADFED7D
:100790001C2A00BFF8EE611A106882EEA12AC0F38D
:1007A000080001EE900AF8EE611A40EE201A31EED0
:1007B000810A00E015E022EE000A1068C0F346202E
:1007C000401C00EE900AF8EE600A80EE201ABCEEA3
:1007D000C10A10EE100A70BD01EE901ADFED092A71
:1007E000D8E7002070BD0000104402580090D003EC
:1007F00000127A0000000039304402580024744A84
:100800000024744C0024F44A2DE9F05F04007DD0EC
:10081000FF4F2078FE4D1837DFF8F493103DC007E6
:1008200048D0D9F80000396800F03800102815D0F9
:10083000182803D101F0030002280FD06068B0F53A
:10084000803F12D010B1B0F5A02F18D0286820F446
:1008500080302860286820F4802009E02868800320
:1008600028D560680028D2D024E0286840F4803081
:100870002860606888B1FFF04FFD064609E02868EF
:1008800040F480202860F0E7FFF046FD801B6428DC
:100890006FD828688003F7D50CE0FFF03DFD0646D1
:1008A00005E000BFFFF038FD801B6428F0D8286801
:1008B0008003F7D4207841F20308D54E0C3E800720
:1008C00061D5D9F80000396810F038000ED018282A
:1008D00001D188070AD0E06880B3296821F01901A6
:1008E00001432960FFF018FD82462FE02868400789
:1008F00002D5E06800288AD0E168286820F0190055
:1009000008432860FFF008FD824607E0D1E000BF01
:10091000FFF002FDA0EB0A000228B9D828684007C2
:10092000F6D500BFFFF0F2FC404513D820693168CE
:1009300021F47C3141EA0030306024E011E000BF56
:10094000FFF0EAFCA0EB0A000228A1D828684007C3
:10095000F6D5E7E7207C316821F0FE4141EA0060EE
:10096000EAE7286820F001002860FFF0D5FC824605
:1009700006E0FFE0FFF0D0FCA0EB0A00022887D8D9
:1009800028684007F6D42078C00657D5D9F800006B
:10099000DFF87CB2396800F03800ABF1040B0828AE
:1009A00010D0182803D101F0030001280AD0E06913
:1009B0000028286832D040F080002860FFF0ACFCAE
:1009C000824623E02868C00523D5E069802870D1DD
:1009D0001FE000BF94F82000316821F0F84141EA9F
:1009E000806030602AE000BF94F82010DBF800201F
:1009F00022F07C5242EA0161CBF800101EE000BFF9
:100A0000FFF08AFCA0EB0A00022886D82868C005FF
:100A1000F6D5FFF07BFC4045E6D8DBE720F0800010
:100A20002860FFF079FC064605E000BFFFF074FC8B
:100A3000801B022889D82868C005F7D420780007D1
:100A400029D573486169643000298046016811D056
:100A500041F001010160FFF05FFC064605E000BFC8
:100A6000FFF05AFC801B022889D8D8F800008007C4
:100A7000F6D510E021F001010160FFF04DFC0646C3
:100A800005E000BFFFF048FC801B022872D8D8F8B0
:100A900000008007F6D42078800623D5A0690028BE
:100AA000286810D040F480502860FFF035FC0646DE
:100AB00005E0E6E0FFF030FC801B02285AD82868E9
:100AC0008004F7D50EE020F480502860FFF024FC6D
:100AD000064604E0FFF020FC801B02284AD8286864
:100AE0008004F7D4207840074FD5DFF82881D8F864
:100AF000001041F48071C8F80010FFF00DFC0646AC
:100B000005E000BFFFF008FC801B642832D8D8F84D
:100B10000000C005F6D53E4EA068603601280AD018
:100B200008B1052813D0306820F00100306030682B
:100B300020F0040002E0306840F001003060A0685E
:100B400041F2883A90B1FFF0E7FB80460AE0306856
:100B500040F004003060EEE7FFF0DEFBA0EB0801A0
:100B6000514507D830688007F6D50EE0FFF0D4FB7A
:100B7000804607E084E000BFFFF0CEFBA0EB080159
:100B800051457DD830688007F6D4606AF0B3D9F853
:100B90000010C1F3C201032973D00228286820F095
:100BA0008070286003D0FFF0B7FB044680E0FFF0C0
:100BB000B3FB064605E000BFFFF0AEFB801B02283A
:100BC00073D828688001F7D4E26A40F2F3313868BC
:100BD00054F8283F884340EA021018433860217BCC
:100BE0004FF4FE0C22894FF0FE47208A4902084B41
:100BF000521E267DA1F5007189B2401EC2F3080283
:100C000020331143761E0CEA004005E053E000005B
:100C10001044025800480258014307EA0662181FB0
:100C2000114319601A1D016821F00101016011686A
:100C30004FF6F876236AB14341EAC30111600168B7
:100C4000A26921F00C01114301600168E26921F001
:100C5000020111430160016841F4803101600168C3
:100C600041F400310160016841F4802101600168B4
:100C700041F001010160286840F08070286001E0C7
:100C800013E01AE0FFF048FB044604E0FFF044FBE9
:100C9000001B022809D828688001F7D50BE000BFA7
:100CA000FFF03AFB001B022802D90320BDE8F09FA9
:100CB00028688001F4D40020F8E70120F6E7401E00
:100CC000B0F1807F10B501D3012010BD4FF0E024BA
:100CD00060610F21601700F025F90020A061072155
:100CE000216110BDFEE770472DE9F047454D0446F0
:100CF00089464FF0000A2868C04380070AD0414E59
:100D0000283E306820F080503060FFF005FB074639
:100D1000B04608E00120BDE8F08700BFFFF0FCFA14
:100D2000C01B022867D8D8F800008000F6D42088BD
:100D300029684FF4FE0721F07C713E0241EA005021
:100D40002860207AA389B4F804C040022D4D2D49B3
:100D50005B1E227CACF1010C1835091DA0F500705A
:100D600080B2521ECCF3080C07EA034340EA0C00A1
:100D7000184306EA0262104328600868626920F49A
:100D80004060104308600A68A06922F400720243C0
:100D90000A60281D0A6822F480720A6002684FF611
:100DA000F873E4699A4342EAC40202600868B9F140
:100DB000000F40F480720A6011D00868B9F1010F89
:100DC00011D040F080700860D8F80000444640F030
:100DD0008050C8F80000FFF09FFA05460DE0086853
:100DE00040F48000EFE740F40000ECE7FFF094FAF5
:100DF000401B022801D903208DE720688000F5D52B
:100E0000504688E728440258F0B5BFF34F8FBFF330
:100E10006F8F1A4900200860BFF34F8FBFF36F8FA9
:100E2000174A116841F400311160BFF34F8FBFF3CF
:100E30006F8F134970310860BFF34F8F081F43F65F
:100E4000FF7400680D4D1035C0F34E31C0F3C90377
:100E500004EA4116184600BF46EA80772F60401E1C
:100E6000FAD2491EF4D2BFF34F8F106840F480309D
:100E70001060BFF34F8FBFF36F8FF0BD50EF00E0F6
:100E800014ED00E070470000214A30B52149146894
:100E90000020204B44F47004146010330A681E4D87
:100EA00042F001020A6018600A681A4B2A400A6080
:100EB00018331C1D251D174A186028322060131D89
:100EC00028601C1D251D10602A1D1860131D206040
:100ED0001C1D2860251D10601860206028600A68AD
:100EE0000C4B0E4C22F4802260330A60186020689C
:100EF0006FF30F00B0F1005F03D209490120C1F880
:100F000008014FF0006002498039086030BD0000E0
:100F100088ED00E0004402587FEDF6EA0010005C26
:100F200000800051090700284FEA116104DB00F13D
:100F3000E02080F80014704700F00F0000F1E0207E
:100F400080F8141D70470000802102460148FFF020
:100F5000D7B90000000402584FF04070E1EE100ACB
:100F600070470000000001020304010203040607A9
:100F700008090000940F0008000000241800000079
:100F8000D4020008AC0F000818000024600600001E
:100F9000F002000801000000100000000000000046
:0C0FA000000000000090D0030090D0037F
:020000040810E2
:100000001FB500F7A9FF1FBD7047704770477546C1
:1000100000F02CF8AE4605006946534620F0070074
:10002000854618B020B500F791F9BDE820404FF0A3
:1000300000064FF000074FF000084FF0000B21F0D2
:100040000701AC46ACE8C009ACE8C009ACE8C0099F
:10005000ACE8C0098D46704710B50446AFF3008088
:100060002046BDE8104000F75CB90000004870472A
:1000700018000024704770474FF4005000F036B865
:10008000194808B5016841F001010160016801F0FB
:1000900001010091016841F002010160016801F075
:1000A00002010091016841F004010160016801F062
:1000B00004010091016841F008010160016801F04C
:1000C00008010091016841F010010160016801F030
:1000D00010010091016841F080010160006800F0AA
:1000E0008000009008BD0000E04402584FF0B0418D
:1000F00010B5D1F88820024203D0C1F8880000F77B
:1001000067F910BD2DE9F84F714C00234FF0B04E48
:100110004FF001094FF0030B4FF00F0AD0E000BF82
:1001200009FA03F812EA080274D04D68022D01D0D2
:10013000122D0FD1DD085F0700EB850500950E69D4
:100140002D6AFF0E0AFA07FCBE4025EA0C052E4375
:10015000009D2E625D000F7906680BFA05FC07F022
:10016000030726EA0C06AF40374307604E68012EAE
:1001700005D0022E03D0112E01D0122E0FD1866889
:10018000CF6826EA0C06AF403743876046680F7990
:1001900026EA0806C7F300179F4037434760C66842
:1001A0008F6826EA0C06AF403743C7604D68ED0004
:1001B00030D5484D2E6846F002062E602D6823F09B
:1001C000030606F1B04605F0020500959D072F0FC6
:1001D000D6F80854DFF800810AFA07FC404525EA02
:1001E0000C0502D14FF0000C41E0DFF8F0C0604593
:1001F00002D14FF0010C3AE0DFF8E4C0604502D1D3
:100200004FF0020C33E0DFF8DCC0604503D14FF063
:10021000030C2CE053E0DFF8D0C0604502D14FF072
:10022000040C24E0DFF8C4C0604502D14FF0050C97
:100230001DE0DFF8BCC0604502D14FF0060C16E0AF
:10024000DFF8B0C0604502D14FF0070C0FE0DFF8D7
:10025000A8C0604502D14FF0080C08E0DFF89CC050
:10026000604502D14FF0090C01E04FF00A0C0CFA86
:1002700007FC4CEA050CC6F808C425684E6825EA58
:100280000205F60300D51543256065684E6825EA2A
:100290000205B60300D5154365604F687546DEF864
:1002A0000060FF0226EA020600D516432E604F6862
:1002B0006E68BF0226EA020600D516436E605B1C1C
:1002C0000A6832FA03F57FF42BAFBDE8F88F00001F
:1002D00080000058F44402580000025800040258FC
:1002E00000080258000C025800100258001402586E
:1002F00000180258001C025800200258002402581E
:100300000AB1816170470904FBE7000001480068F9
:10031000000C70470010005C0148806870470000C6
:1003200000000024704700000E4BF0B41B680D461F
:10033000C3F30223C3F10706042E00D90426191DB6
:10034000072901D2002300E0DB1E012404FA06F194
:100350009C40491E2940641E994014402143F0BC32
:1003600000F7E0BD0CED00E0064900F0070210B513
:100370004FF6FF040868044B204040EA022018436F
:10038000086010BD0CED00E00000FA05124970B5E0
:100390000A68520706D40A6802F00702824201D0B6
:1003A000012070BD0A6822F0070202430A60FFF7CD
:1003B000B3FF094D4FF47A760446083D07E000BFCD
:1003C000FFF7AAFF001BB04201D9032070BD2868C7
:1003D0008004F5D5002070BD0C4802582DE9FC5F63
:1003E000044650F8241B002500902E460801FE4FBD
:1003F000DFF8F8931DD5606E50B1B0F5801F0CD0BA
:10040000B0F5001F0ED0B0F5401F1DD001250FE044
:10041000386840F40030386016E00221201D00F0FA
:1004200057FC03E00098022100F75EFC05000BD0AA
:100430002E462088C00523D5606D05281ED2DFE832
:1004400000F00C11161B1B00626ED9F8001021F48D
:1004500040111143C9F80010EBE7386840F4003050
:10046000386009E00021201D00F032FC03E0009814
:10047000002100F739FC05466DB100E001252E464C
:100480002088800528D5A06D80281ED00CDC90B176
:1004900040280ED114E0626DD9F8001021F0070158
:1004A0001143C9F80010EBE7C02813D0B0F5807FE6
:1004B00010D001250FE0386840F40030386009E0C2
:1004C0000021201D00F004FC03E00098002100F74B
:1004D0000BFC054695B12E462088DFF810834005B9
:1004E00008F108082CD5D4F8A400B0F5800F20D06E
:1004F0000DDCA0B1B0F5001F0FD115E0A26DD9F849
:10050000001021F4E0711143C9F80010E4E7B0F5E0
:10051000C00F13D0B0F5000F10D001250FE03868E0
:1005200040F40030386009E00021201D00F0D0FBCD
:1005300003E00098002100F7D7FB054675B12E4671
:10054000208800052DD5D4F8A800B0F1007F21D077
:100550000EDCA8B1B0F1807F10D116E0D4F8A42051
:10056000D8F8001021F460011143C8F80010E7E743
:10057000B0F1407F13D0B0F1806F10D001250FE0B3
:10058000386840F40030386009E00021201D00F098
:100590009FFB03E00098002100F7A6FB05466DB124
:1005A0002E46206880011FD5A06CD8B110280FD02E
:1005B000202812D0302815D0012514E0D4F8A82026
:1005C000D8F8001021F0E0611143C8F80010E8E706
:1005D000386840F40030386004E00221201D00F04B
:1005E00077FB05466DB12E462088C0042BD5E06D03
:1005F000B0F5005F20D00DDCA0B1B0F5805F0FD169
:1006000015E07A48A26C001F016821F03001114307
:100610000160E9E7B0F5405F13D0B0F5804F10D02E
:1006200001250FE0386840F40030386009E000210F
:10063000201D00F04DFB03E00098002100F754FB63
:10064000054685B12E462088800429D5206EB0F558
:10065000403F23D010DC08B3B0F5803F14D0B0F594
:10066000003F0FD115E0E26DD9F8001021F4E04110
:100670001143C9F80010E6E7B0F5802F0ED0B0F5B1
:10068000A02F0BD001250AE00121201D00F020FB46
:1006900003E00098012100F727FB05468DB12E46A7
:1006A000208840042AD5D4F8AC00B0F1405F23D0B4
:1006B00010DC08B3B0F1805F14D0B0F1005F0FD14F
:1006C00015E0226ED9F8001021F4E0211143C9F899
:1006D0000010E5E7B0F1804F0ED0B0F1A04F0BD085
:1006E00001250AE00121201D00F0F2FA03E0009844
:1006F000012100F7F9FA05466DB12E462088000465
:100700001FD5E06ED8B1B0F1805F0ED0B0F1005FC0
:1007100010D0012514E0D4F8AC20D8F8001021F056
:10072000E0411143C8F80010E8E7386840F40030B1
:10073000386004E00121201D00F0CAFA05466DB1C1
:100740002E462068C0011ED5606CD0B101280ED0A5
:10075000022811D0032814D0012513E0E26ED9F845
:10076000001021F040511143C9F80010E9E7386842
:1007700040F40030386004E00221201D00F0A8FAA7
:10078000054685B12E462068DFF85CB04002ABF12B
:100790001C0B57D51648016841F480710160FFF7C2
:1007A000BBFD82460EE01148626C001F016821F01B
:1007B000030111430160E6E7FFF7AEFDA0EB0A007D
:1007C00064283DD80A480068C005F5D57DBBDFF830
:1007D0001CA0B4F8B0100AF1200ADAF8000001F405
:1007E000407100F4407005E02C4402585044025817
:1007F00000480258884211D0DAF80010DAF80020D8
:1008000021F4407142F48032CAF80020DAF8002066
:1008100022F48032CAF80020CAF80010D4F8B000E0
:10082000B0F5807F21D1FFF777FD019019E008E056
:10083000FFF772FD0199411A41F28830814210D9C7
:1008400003252E462078DFF82CA4C0073DD0A06FEA
:10085000182838D026DC80B3082829D0102825D1C4
:100860002CE0DAF800008007E2D5D4F8B010C1F32C
:100870000120032858460DD0016821F47C51016005
:10088000B4F8B020DAF80010C2F30B021143CAF832
:100890000010D7E7F84A036802EA111223F47C51EA
:1008A0001143ECE720280ED028280CD001250BE0BE
:1008B0000121201D00F00CFA04E004E00098012161
:1008C00000F712FA05465DB12E46207880071ED546
:1008D000606F062819D2DFE800F0160C1116161604
:1008E000A26FDAF8001021F038011143CAF80010A5
:1008F000EBE70121201D00F0EBF903E00098012156
:1009000000F7F2F9054675B100E001252E46207882
:1009100040071FD5D4F89000062819D2DFE800F070
:10092000160C11161616626FDAF8001021F0070186
:100930001143CAF80010EAE70121201D00F0C8F9B0
:1009400003E00098012100F7CFF905469DB100E0D2
:1009500001252E46207880062BD5D4F88C00B0F1E6
:10096000405F24D011DC10B3B0F1805F15D0B0F13E
:10097000005F10D116E0D4F89020D8F8001021F0D4
:1009800007011143C8F80010E4E7B0F1804F0ED022
:10099000B0F1A04F0BD001250AE00021201D00F08E
:1009A00097F903E00098022100F79EF905468DB102
:1009B0002E46207840062BD5D4F89800B0F5406F2D
:1009C00024D011DC10B3B0F5806F15D0B0F5006FF6
:1009D00010D116E0D4F88C20DAF8001021F0E041B4
:1009E0001143CAF80010E4E7B0F5805F0ED0B0F50F
:1009F000A05F0BD001250AE00021201D00F068F95E
:100A000003E00098022100F76FF905468DB12E46EC
:100A1000207800062BD5D4F89C00B0F5C04F24D028
:100A200011DC10B3B0F5005F15D0B0F5804F10D1D8
:100A300016E0D4F89820D8F8001021F4E0511143C2
:100A4000C8F80010E4E7B0F5004F0ED0B0F5204F25
:100A50000BD001250AE00021201D00F039F903E048
:100A60000098022100F740F9054665B32E4620782C
:100A700000070BD5D4F88010B1F5805F2DD0DAF8DF
:100A8000002022F440520A43CAF800202078C00611
:100A90000BD5D4F89410B1F5807F26D0D8F800207B
:100AA00022F440720A43C8F800202068000330D5C1
:100AB000D4F8A00008B3B0F5803F23D0B0F5003FD4
:100AC00025D0012524E0D4F89C20D8F8001021F48A
:100AD00060411143C8F80010C9E70098022100F7EF
:100AE00003F90028D2D00126D0E70098022100F7B0
:100AF000FBF80028D9D00126D7E70021201D00F0FF
:100B0000E7F803E00098022100F7EEF8054685B10A
:100B10002E462068400322D5D4F88400B0F5801F0B
:100B200011D0B0F5001F13D0B0F5401F15D001252E
:100B300014E0D4F8A020D8F8001021F4403111437B
:100B4000C8F80010E5E7386840F40030386004E089
:100B50000098012100F7C8F8054655B12E462068D7
:100B6000C0031CD5E06C70B1B0F5803F10D00125FA
:100B700014E0D4F88420DAF8001021F44011114375
:100B8000CAF80010EBE7386840F40030386004E041
:100B90000221201D00F09CF80546CDB12E462068AC
:100BA000800005D50098022100F79EF800B10126CB
:100BB000206880031BD5E06FB8B1B0F5807F10D0FE
:100BC000B0F5007F11D0B0F5407F0ED001250DE0CB
:100BD0002848E26C0838016821F480311143016033
:100BE000DDE7386840F400303860EDB32E46206809
:100BF000C00207D5226FD9F8001021F0004111433F
:100C0000C9F800102068C00008D5D4F8B420DBF87B
:100C1000001021F480411143CBF8001020688002BD
:100C200007D5A26ED9F8001021F080711143C9F8E0
:100C30000010206840000CD5DBF8001021F40041C2
:100C4000CBF80010DBF80010D4F8B8201143CBF833
:100C500000102068002809DA0648226D083801686B
:100C600021F04051114300E008E001607EB1012015
:100C7000BDE8FC9F54440258CFFFFF00E26FDAF852
:100C8000001021F440711143CAF80010AFE70020B2
:100C9000EEE7000010B586B014216846FFF668FB49
:100CA0008020094C012102228DE807006946204678
:100CB000FFF728FA4FF48040694600902046FFF77E
:100CC00021FA06B010BD000000040258FEE770478C
:100CD0002DE9F047454D044689464FF0000A286843
:100CE000C04380070AD0414E283E306820F0806023
:100CF0003060FFF711FB0746B04608E00120BDE871
:100D0000F08700BFFFF708FBC01B022867D8D8F8A0
:100D100000000001F6D4206829684FF4FE0721F492
:100D20007C313E0241EA00302860207AA389B4F881
:100D300004C040022D4D2D495B1E227CACF1010CFC
:100D40001035091DA0F5007080B2521ECCF3080CBE
:100D500007EA034340EA0C00184306EA0262104324
:100D600028600868626920F0C000104308600A68C3
:100D7000A06922F0200202430A60281D0A6822F0BE
:100D800010020A6002684FF6F873E4699A4342EA77
:100D9000C40202600868B9F1000F40F010020A6056
:100DA00011D00868B9F1010F11D040F400100860AB
:100DB000D8F80000444640F08060C8F80000FFF713
:100DC000ABFA05460DE0086840F40020EFE740F478
:100DD0008010ECE7FFF7A0FA401B022801D903209E
:100DE0008DE720680001F5D5504688E72844025871
:100DF000FFF6F8BA70B5CCB04C212FA8FFF6B8FAC0
:100E0000202142A8FFF6B4FABC216846FFF6B0FAEA
:100E10000220FFF7BBFA294800242949026842F45E
:100E20004042026002680A6842F001020A600968F2
:100E300001F001014A9101688904FCD52149022091
:100E40000A6808250123C60322F00302921C0A60E7
:100E50004FF4C871389039903C90CDE93A013D90FB
:100E60003E902FA8CDE93F544194CDE92F36FFF6AF
:100E7000CBFC08B1FFF6ABFA40203F210301CDE9DE
:100E800045500322CDE9470342AB499042A883E88D
:100E900016000421FFF6FAFA08B1FFF698FA149446
:100EA0004FF400310848289100906846FFF796FA01
:100EB000002801D0FFF68BFA4CB070BD18480258DC
:100EC0002C0400582844025800000880FEE710B5A2
:100ED000FFF69AFFFFF68EFAFFF78CFFFFF7D0F8C8
:100EE000FFF7D8FE012000F72FF8012000F002F8EC
:100EF000002010BD4FF4804102460148FFF700BAC0
:040F0000000402588F
:040000050800029954
:00000001FF
